S0120000434F4E54524F4C4C45522E737265630E
S11300000C942A000C943F000C943F000C943F0085
S11300100C943F000C943F000C943F000C943F0060
S11300200C943F000C943F000C943F000C943F0050
S11300300C943F000C943F000C943F000C943F0040
S11300400C943F000C943F000C943F000C943F0030
S11300500C943F0011241FBECFE5D8E0DEBFCDBF16
S113006011E0A0E6B0E0EAEFF5E002C005900D92E1
S1130070AE30B107D9F70E9431020C94FB020C9404
S113008000000E94C80208950E94F20208954423C9
S113009019F04130C9F10895813091F028F082308F
S11300A0D9F0833029F108952AB381E090E002C0A9
S11300B0880F991F6A95E2F7809582238ABB089579
S11300C027B381E090E002C0880F991F6A95E2F798
S11300D08095822387BB089524B381E090E002C019
S11300E0880F991F6A95E2F78095822384BB08954F
S11300F021B381E090E002C0880F991F6A95E2F76E
S11301008095822381BB0895813089F028F0823064
S1130110C9F0833011F108952AB381E090E002C060
S1130120880F991F6A95E2F7822B8ABB089527B33B
S113013081E090E002C0880F991F6A95E2F7822B54
S113014087BB089524B381E090E002C0880F991F13
S11301506A95E2F7822B84BB089521B381E090E095
S113016002C0880F991F6A95E2F7822B81BB08951C
S1130170442319F04130C9F10895813091F028F0F9
S11301808230D9F0833029F108952BB381E090E0D7
S113019002C0880F991F6A95E2F7809582238BBB72
S11301A0089528B381E090E002C0880F991F6A95F2
S11301B0E2F78095822388BB089525B381E090E01F
S11301C002C0880F991F6A95E2F78095822385BB48
S11301D0089522B381E090E002C0880F991F6A95C8
S11301E0E2F78095822382BB0895813089F028F05C
S11301F08230C9F0833011F108952BB381E090E08F
S113020002C0880F991F6A95E2F7822B8BBB089571
S113021028B381E090E002C0880F991F6A95E2F745
S1130220822B88BB089525B381E090E002C0880F3B
S1130230991F6A95E2F7822B85BB089522B381E06A
S113024090E002C0880F991F6A95E2F7822B82BB67
S11302500895CF93C82F40E065E083E00E94B80082
S113026040E066E083E00E94B80040E067E083E09D
S11302700E94B8008BB39C2F907F8F70892B8BBB0F
S113028041E067E083E00E94B8008FEC97E00197BB
S1130290F1F700C0000040E067E083E00E94B8008E
S11302A02BB330E1C39FC0011124922F9F70892B7F
S11302B08BBB41E067E083E00E94B8008FEC97E0DD
S11302C00197F1F700C0000040E067E083E00E947E
S11302D0B8008FE097E20197F1F700C00000CF91DA
S11302E0089541E065E083E00E94470041E066E054
S11302F083E00E94470041E067E083E00E944700FA
S113030041E064E080E00E94470041E065E080E075
S11303100E94470041E066E080E00E94470041E01F
S113032067E080E00E9447002FEF80E792E02150D1
S113033080409040E1F700C0000083E30E9429015F
S113034082E30E94290188E20E9429018CE00E9434
S1130350290186E00E94290182E00E94290181E0AE
S11303600E9429010895CF93C82F41E065E083E0FE
S11303700E94B80040E066E083E00E94B80040E0DC
S113038067E083E00E94B8008BB39C2F907F8F704E
S1130390892B8BBB41E067E083E00E94B8008FECBF
S11303A097E00197F1F700C0000040E067E083E0C8
S11303B00E94B8002BB330E1C39FC0011124922FD7
S11303C09F70892B8BBB41E067E083E00E94B800FB
S11303D08FEC97E00197F1F700C0000040E067E080
S11303E083E00E94B8008FE097E20197F1F700C024
S11303F00000CF9108950F931F93CF938C01C0E019
S1130400FC018081882349F00E94B301CF5FF80189
S1130410EC0FF11D80818111F7CFCF911F910F91C6
S11304200895CF93DF9300D000D0CDB7DEB790E826
S1130430998390EC9A8394E99B8394ED9C83FE01C9
S1130440E80FF11D8181860F0E9429010F900F9002
S11304500F900F90DF91CF91089581E00E942901C0
S113046008950E9471010E9441000E94A2020E940C
S1130470B9022FEF89E698E1215080409040E1F7DE
S113048000C0000080E690E00E94FB0164E082E08E
S11304900E94110283E790E00E94FB010E94440045
S11304A0C82F0E942D02C11101C0FFCF8C2F880FCD
S11304B00E94BF028DE790E00E94FB01C334F1F07B
S11304C028F4C13449F0C23481F0E8CFC53441F195
S11304D0F0F0C63471F1E2CF61E082E00E941102D3
S11304E08FE890E00E94FB01D9CF61E082E00E9496
S11304F0110283EA90E00E94FB01D0CF61E082E028
S11305000E94110287EB90E00E94FB01C7CF61E0DB
S113051082E00E9411028DEC90E00E94FB01BECFAC
S113052061E082E00E94110283EE90E00E94FB01F0
S1130530B5CF61E082E00E94110289EF90E00E9451
S1130540FB01ACCF41E064E081E00E94470041E060
S113055065E081E00E94470040E066E081E00E949F
S1130560470041E067E081E00E94470083E58DB9E0
S1130570089540E064E081E00E94B80008958FB9D6
S11305808EB1881F8827881F8EB98823C9F30895E0
S113059041E061E083E00E94470040E060E083E0E6
S11305A00E944700539A549A80B5806880BD80B5F4
S11305B08F7B80BD599A589857985698559880B50E
S11305C0826080BD80B5846080BD529880B58F7E86
S11305D080BD80B58F7D80BD80B5877F80BD83E37E
S11305E089B908958BB1881F8827881F8BB9882300
S10D05F0C9F38CB10895F894FFCF0D
S11305FA536D61727420486F6D652050726F6A651D
S113060A6374004232365F47726F75700053454E09
S113061A44454420434F4D4D414E44203A20005412
S113062A4F47474C4520475245454E204C454420A8
S113063A202000544F47474C452059454C4C4F57AE
S113064A204C45442020004D4F544F5220494E20FF
S113065A4C4F57205350454544202020004D4544D3
S113066A49554D205350454544204D4F544F52202F
S113067A2020004D4F544F5220494E2048494748A4
S113068A2053504545442020005455524E204F468D
S111069A46204D4F544F522020202020200097
S9030000FC
