:100000000C942A000C943C000C943C000C943C0092
:100010000C943C000C943C000C943C000C943C0070
:100020000C943C000C943C000C943C000C943C0060
:100030000C943C000C943C000C943C000C943C0050
:100040000C943C000C943C000C943C000C943C0040
:100050000C943C0011241FBECFE5D8E0DEBFCDBF1D
:1000600020E0A0E6B0E001C01D92A036B207E1F7A3
:100070000E9488010C9475020C940000442319F02E
:100080004130C9F10895813091F028F08230D9F0E3
:10009000833029F108952AB381E090E002C0880FEF
:1000A000991F6A95E2F7809582238ABB089527B34A
:1000B00081E090E002C0880F991F6A95E2F7809571
:1000C000822387BB089524B381E090E002C0880FAB
:1000D000991F6A95E2F78095822384BB089521B326
:1000E00081E090E002C0880F991F6A95E2F7809541
:1000F000822381BB0895813089F028F08230C9F0D5
:10010000833011F108952AB381E090E002C0880F96
:10011000991F6A95E2F7822B8ABB089527B381E085
:1001200090E002C0880F991F6A95E2F7822B87BB87
:10013000089524B381E090E002C0880F991F6A956A
:10014000E2F7822B84BB089521B381E090E002C0E6
:10015000880F991F6A95E2F7822B81BB089544238B
:1001600019F04130C9F10895813091F028F08230C2
:10017000D9F0833029F108952BB381E090E002C0DB
:10018000880F991F6A95E2F7809582238BBB0895AB
:1001900028B381E090E002C0880F991F6A95E2F7CA
:1001A0008095822388BB089525B381E090E002C04A
:1001B000880F991F6A95E2F78095822385BB089581
:1001C00022B381E090E002C0880F991F6A95E2F7A0
:1001D0008095822382BB0895813089F028F0823097
:1001E000C9F0833011F108952BB381E090E002C093
:1001F000880F991F6A95E2F7822B8BBB089528B36D
:1002000081E090E002C0880F991F6A95E2F7822B87
:1002100088BB089525B381E090E002C0880F991F44
:100220006A95E2F7822B85BB089522B381E090E0C6
:1002300002C0880F991F6A95E2F7822B82BB08954E
:10024000813089F028F08230C9F0833011F10895AF
:100250002BB381E090E002C0880F991F6A95E2F706
:1002600082278BBB089528B381E090E002C0880FFD
:10027000991F6A95E2F7822788BB089525B381E02C
:1002800090E002C0880F991F6A95E2F7822785BB2C
:10029000089522B381E090E002C0880F991F6A950B
:1002A000E2F7822782BB0895813059F028F082302E
:1002B00069F0833081F0089541E080E00E943E00C3
:1002C000089541E081E00E943E00089541E082E00F
:1002D0000E943E00089541E083E00E943E000895A0
:1002E000813051F028F0823059F0833069F0089560
:1002F00080E00E942001089581E00E94200108957D
:1003000082E00E942001089583E00E942001089568
:1003100060E082E00E94540161E082E00E945401AA
:100320000E94BF010E94FE0180E090E00E9417023F
:10033000811101C0FFCF8334B1F028F4813449F03A
:10034000823461F0F1CF8534A1F080F08634A1F0E1
:10035000EBCF60E082E00E947001E6CF61E082E0D6
:100360000E947001E1CF0E94E001DECF0E94EA010D
:10037000DBCF0E94F401D8CF0E94D501D5CF41E058
:1003800062E082E00E943E0041E063E082E00E9481
:100390003E00089541E062E082E00E94AF0040E04C
:1003A00063E082E00E94AF00089540E062E082E0F6
:1003B0000E94AF0040E063E082E00E94AF00089539
:1003C0000E94CA010E9420020E94430289E10E9409
:1003D000300208950E94CA010E9420020E94430236
:1003E00082E30E94300208950E94CA010E94200206
:1003F0000E94430284E60E943002089540E064E0D7
:1004000081E00E943E0040E065E081E00E943E0005
:1004100041E066E081E00E943E0040E067E081E06C
:100420000E943E006C986E9A6B986A9808958EB1FF
:10043000881F8827881F8EB98823C9F38FB1089534
:1004400083B7806883BF83B7806483BF83B78860C6
:1004500083BF83B78F7E83BF83B7806283BF0895D6
:10046000CF93C82F41E063E081E00E943E002FEF70
:10047000C29FC001112464E670E00E944D026150E9
:100480006CBFCF91089583B7816083BF83B78D7FA1
:1004900083BF83B7846083BF089597FB072E16F44C
:1004A000009407D077FD09D00E94610207FC05D0B7
:1004B0003EF4909581959F4F0895709561957F4F7B
:1004C0000895AA1BBB1B51E107C0AA1FBB1FA6179B
:1004D000B70710F0A61BB70B881F991F5A95A9F7ED
:0E04E00080959095BC01CD010895F894FFCF52
:00000001FF
